:020000040800F2
:1000000088100020A101000879440008613A000826
:10001000B5430008D9080008998E000800000000C8
:1000200000000000000000000000000071790008DE
:10003000670A000800000000F54400080D7F000872
:10004000BB010008BB010008BB010008BB010008A0
:10005000BB010008BB010008BB010008BB01000890
:10006000BB010008BB010008BB010008BB01000880
:10007000ED080008FD080008BB0100080D09000894
:100080001D090008BB010008BB010008BB010008F6
:10009000BB010008BB010008BB010008BB01000850
:1000A000BB010008BB010008BB010008BB01000840
:1000B000BB010008BB010008BB010008BB01000830
:1000C000BB010008BB010008BB010008BB01000820
:1000D000BB010008618B00088D8C0008E18C0008D2
:1000E000BB010008BB010008BB010008BB01000800
:1000F000BB010008BB010008BB010008BB010008F0
:10010000BB010008BB01000805800008BB01000816
:1001100041830008D5830008BB010008BB0100082B
:10012000BB0100082D0900083D090008BB010008BB
:10013000BB010008BB010008BB010008BB010008AF
:10014000BB010008BB010008BB010008BB0100089F
:10015000BB0100084D090008BB010008058E00081E
:10016000BB010008BB010008BB010008BB0100087F
:10017000BB010008BB010008BB0100080000000033
:10018000BB010008BB010008DFF810D000F092FBB3
:1001900000480047619C0008AFF3008088100020F1
:1001A0000648804706480047FEE7FEE7FEE7FEE711
:1001B000FEE7FEE7FEE7FEE7FEE7FEE7C57F000895
:1001C000890100082DE9F05F0546002092469B4614
:1001D00088460646814640241BE02846414647465D
:1001E000224600F0B0FA53465A46C01A914110D345
:1001F00011461846224600F097FA2D1A67EB0108BF
:100200004F4622460120002100F08EFA17EB00092C
:100210004E41201EA4F10104DFDC484631462A4647
:100220004346BDE8F09F2DE9FE43994615468846B2
:10023000074601AC022942D3002D40D00020029095
:10024000A8F101004FF0FF36009022E000FB05729C
:1002500001FB057011464A469047002805DC54F81A
:100260002600304444F8260013E060682A4600FB6C
:10027000057154F8040C00FB057007E00B7890F84A
:1002800000C001F801CB00F8013B521E002AF5D155
:10029000764254F8040C61688842D7DC4B462A4603
:1002A0003846FFF7C0FF54F8040C4B46A8EB00019A
:1002B000401C00FB05702A46491EFFF7B4FFBDE84D
:1002C000FE8340EA01039B0703D009E008C9121F1F
:1002D00008C0042AFAD203E011F8013B00F8013B00
:1002E000521EF9D27047D2B201E000F8012B491E2C
:1002F000FBD270470022F6E710B513460A460446C3
:100300001946FFF7F0FF204610BD2DE9FE4F80464D
:1003100081EA0300C00F0C46009021F0004123F059
:100320000045B8EB0200A94105D24046214690465F
:100330001C460B46024623F00040104347D0270DD1
:10034000C7F30A00C3F30A510290401A01904028F3
:100350006BDAC3F3130040F4801B0098924620B17F
:100360000023D2EB030A63EB0B0B01985946C0F153
:100370004002504600F0D8F906460D465046594610
:10038000019A00F0F0F910EB08006141002487EABF
:10039000115284EAE7731A4340D0009A62B3019A7B
:1003A000012A4FEA075215DC001B61EB02014FF0F6
:1003B000004202EA0752CDE90042001C41F58011DB
:1003C00032462B4600F027FA03B0BDE8F08F4046D6
:1003D0002146F9E7001B61EB0201001C41F5801387
:1003E00000185B412018A2F5001747EB030140EA13
:1003F000D570B6196D4111E06D084FEA360645EA31
:10040000C0754FEA0752001B61EB0201001C41F569
:10041000801149084FEA30000019514132462B46FD
:1004200003B0BDE8F04F00F0E7B9009801224000AA
:100430000023D0EB020263EBE073009821464FEA01
:10044000E074B8EB000061EB0401E9E783F00043DE
:100450005BE781F0004158E72DE9FE4F81EA030494
:1004600004F0004421F0004100944FF0000B23F011
:10047000004350EA01045ED052EA03045BD0C3F3A8
:100480000A54C1F30A552C44A4F2F3340194A0FB9E
:100490000254C1F3130141F48011C3F3130343F475
:1004A000801301FB024400FB034E840A970A44EACE
:1004B000815447EA8357A4FB076802958D0A05FB20
:1004C00007854FEA932C04FB0C542705029D4FEA45
:1004D000065847EA1637B5EB08056EEB070C870E92
:1004E000920E47EA811742EA8312A7FB0201B6EB9C
:1004F0000B0164EB00042B0D43EA0C335E1844EB54
:100500001C50DA465146E7FB0201C5F313044FEADB
:100510000B3343EA14534FEA0432019C43EA0603C7
:10052000A4F10C040294009CCDE900B400F073F92E
:1005300003B0BDE8F08F00200146F9E72DE9F04D4A
:1005400081EA030404F0004B21F0004514464FF00B
:10055000000A23F0004150EA050220D054EA0102CB
:100560001DD0C5F30A570246C5F31303C1F31300A8
:10057000C1F30A5640F4801543F48013A7EB060834
:10058000101BD64608F2FD3873EB050002D308F1C4
:10059000010801E092185B41B8F1000F03DA002076
:1005A0000146BDE8F08D00204FF4801106468446D8
:1005B0000EE0171B73EB050705D3121B63EB050356
:1005C00006434CEA010C49084FEA300092185B419F
:1005D00050EA0107EDD152EA030012D082EA04008A
:1005E00083EA0501084305D0101BAB4106D2012266
:1005F000002306E000224FF0004302E06FF001020A
:1006000053101AEB06004CEB085110EB0A0041EBBB
:100610000B01BDE8F04D00F0EFB80EB5C10F80EA58
:10062000E0700844CA07002140F233438DE80E0011
:100630000A460B4600F0EFF803B000BD00F00042A0
:1006400030F000400AD0C10D01F56071C0F3160012
:1006500042EA0151C2084007114370470020014699
:100660007047000030B5041E71F1000404DB4FF048
:100670000044404264EB0101141E73F1000405DBE9
:100680001C464FF00043524263EB04038B4208BF09
:10069000824230BD30B5041E71F1000404DB4FF01E
:1006A0000044404264EB0101141E73F1000405DBB9
:1006B0001C464FF00043524263EB0403994208BFCB
:1006C000904230BD01F0004330B421F0004150EAC7
:1006D000010206D00A0DA2F56072C1F31301002ACF
:1006E00002DC30BC00207047440F44EAC104C10062
:1006F000E01830BC00EBC25000F047B830B50B46F4
:10070000014600202022012409E021FA02F59D4241
:1007100005D303FA02F5491B04FA02F52844151E15
:10072000A2F10102F1DC30BD202A04DB203A00FAFC
:1007300002F1002070479140C2F1200320FA03F338
:10074000194390407047202A04DB203A21FA02F036
:100750000021704721FA02F3D040C2F120029140FB
:10076000084319467047202A06DBCB17203A41FA86
:1007700002F043EAE07306E041FA02F3D040C2F12E
:10078000200291400843194670470029A8BF7047CE
:10079000401C490008BF20F00100704710B4B0FAB7
:1007A00080FC00FA0CF050EA010404BF10BC704752
:1007B00049B1CCF1200421FA04F411FA0CF118BF6C
:1007C000012121430843A3EB0C01CB1D4FEA00613B
:1007D0004FEA102042BF002010BC704700EBC3500E
:1007E00010440029A4BF10BC7047401C490008BF3A
:1007F00020F0010010BC704710B5141E73F1000406
:1008000008DA401C41F1000192185B411A4301D102
:1008100020F0010010BD2DE9F04D92469B4611B12C
:10082000B1FA81F202E0B0FA80F220329046FFF78E
:100830007BFF04460F4640EA0A0041EA0B0153469B
:100840005A46084313D0114653EA010019D0C8F1A3
:1008500040025046FFF777FF05460E465046594680
:100860004246FFF761FF084305D0012004E020461F
:100870003946BDE8F08D0020054346EAE0762C437A
:1008800037430A986305E40AA0EB08000022FD0A3A
:1008900044EA47540A3002D500200146E9E7010541
:1008A00010196941DDE9084500196941BDE8F04DBD
:1008B000A2E70000064C074D06E0E06840F00103A7
:1008C00094E8070098471034AC42F6D3FFF760FC79
:1008D00000BE000820BE000800BFFEE70246024836
:1008E0001060022070470000C15E000810B5024889
:1008F00000F064FA10BD0000A808002010B50248FE
:1009000000F05CFA10BD00002807002010B5024876
:1009100000F054FA10BD00008807002010B502480E
:1009200000F04CFA10BD00004808002010B5024845
:1009300000F044FA10BD00000809002010B502487C
:1009400000F03CFA10BD0000E807002010B5024896
:1009500000F034FA10BD0000680900200146087854
:1009600010381823B0FBF3F20848805CC865032AEE
:1009700005D908686FF30900001D886503E0086861
:100980006FF309008865886D70470000A8A900080A
:10099000014600208A6A8B69CBB932B1012A0DD099
:1009A000022A03D0032A10D10EE000BFCB6A03F065
:1009B0008073B3F1807F00D1012007E0CB6AB3F1EF
:1009C000C07F00D1012001E000E000BF34E08B696E
:1009D000B3F5005F1AD132B1012A07D0022A03D041
:1009E000032A11D10AE000BF01200EE0CB6A03F018
:1009F0008073B3F1807F00D1012006E0CB6AB3F1B0
:100A0000C07F00D1012000E000BF15E032B1012A13
:100A100005D0022A04D0032A0CD103E000BF00BF96
:100A2000012008E0CB6A03F08073B3F1807F00D12E
:100A3000012000E000BF00BF704730B504682468A3
:100A400024F4802405682C60046863608468402C6A
:100A500004D10468A2600468E16003E00468A16056
:100A60000468E26030BD704710B59FED791ADFED84
:100A7000790A9FED790A794809F07CFC9FED741A98
:100A8000DFED740A9FED740A7448143009F072FCAB
:100A90009FED6F1ADFED6F0A9FED6F0A6F482838E0
:100AA00009F068FC9FED6A1ADFED6A0A9FED6A0A99
:100AB0006A48143809F05EFC0021694801F0CCFD59
:100AC0000421684801F0C8FD0021674801F0C4FD19
:100AD0000021664801F0C0FD1E2061490968486395
:100AE0006049096888636049096848635F49096823
:100AF0004863B2EE0E5AF1EE0C4AB1EE0C4A9FED8D
:100B00005C3B9FED5D2B9FED5E1B9FED5B0B5E489D
:100B100003F0B4FCB2EE0E5AF1EE0C4AB1EE0C4A00
:100B20009FED533B9FED592B9FED551B9FED590BAF
:100B30005A4803F0A3FCB2EE0E5AF1EE0C4AB1EEA5
:100B40000C4A9FED4B3B9FED512B9FED4D1B9FEDB5
:100B5000510B534803F092FCB2EE0E5AF1EE0C4AE0
:100B6000B1EE0C4A9FED423B9FED452B9FED4D1B97
:100B70009FED460B4D4803F081FCB2EE0E5AF1EEAC
:100B80000C4AB1EE0C4A9FED3A3B9FED3D2B9FED99
:100B9000451B9FED3E0B464803F070FCB2EE0E5A2B
:100BA000F1EE0C4AB1EE0C4A9FED313B9FED412B2B
:100BB0009FED331B9FED410B424803F05FFC9FED1F
:100BC000300B314880ED000B9FED2D0B334880ED4D
:100BD000000B9FED2B0B324880ED000B9FED280B97
:100BE000324880ED000B9FED260B314880ED000B65
:100BF0009FED350B334880ED000B0021344801F0A8
:100C00002BFD0421324801F027FD0821304801F076
:100C100023FD0C212E4801F01FFD04212D4801F079
:100C20001BFD00202A49096848632949096888632F
:100C300027490968C863264909680864254909687D
:100C400088630120244908702449087010BD000001
:100C500000007A44000000006F12033AD800002020
:100C600070040020E003002000050020480500205B
:100C70009A9999999999E93F0000000000002E4047
:100C80000000000000000000000100200000000043
:100C9000000010409A9999999999C93F60010020E4
:100CA000C00100209A9999999999A93F8002002042
:100CB00020020020000000000000E03F00000000D3
:100CC00000002440E0020020000000000080674097
:100CD00098030020B80400201C0000201D00002004
:100CE00072B600BFFEE770B50446A56D00F06CFB60
:100CF000064694F83500022808D08020606500BFC1
:100D0000002084F8340000BF012070BD2068006816
:100D100020F01600216808602068406920F08000FB
:100D200021684861206C08B9A06C28B1206800686F
:100D300020F00800216808602068006820F00100A9
:100D40002168086010E000F03FFB801B05280BD9EC
:100D500020206065032084F8350000BF002084F85F
:100D6000340000BF0320D0E72068006800F00100D5
:100D70000028E8D194F85C103F208840A86001204A
:100D800084F8350000BF002084F8340000BF00BFA5
:100D9000BBE7014691F83500022803D08020486562
:100DA00001207047052081F835000868006820F0B0
:100DB00001000A6810600020F3E70000F8B504465F
:100DC000002000908C4800684FF41651B0FBF1F7FA
:100DD000A56D2E6894F85C1008208840304098B1CA
:100DE0002068006800F0040070B12068006820F0FE
:100DF00004002168086094F85C1008208840A8600E
:100E0000606D40F00100606594F85C10012088403E
:100E1000304068B12068406900F0800040B194F82B
:100E20005C1001208840A860606D40F002006065A1
:100E300094F85C1004208840304068B12068006855
:100E400000F0020040B194F85C1004208840A860D3
:100E5000606D40F00400606594F85C1010208840DC
:100E6000304078B32068006800F0080050B394F870
:100E70005C1010208840A8602068006800F4802082
:100E800080B12068006800F4002028B9206CC8B147
:100E90002046216C884715E0A06C98B12046A16CD3
:100EA00088470FE02068006800F4807028B9206847
:100EB000006820F0080021680860206C10B120460E
:100EC000216C884794F85C1020208840304000282E
:100ED00065D02068006800F0100000285FD094F80A
:100EE0005C1020208840A86094F83500052828D19F
:100EF0002068006820F016002168086020684069BA
:100F000020F0800021684861206C08B9A06C28B1ED
:100F10002068006820F008002168086094F85C10E0
:100F20003F208840A860012084F8350000BF0020E1
:100F300084F8340000BF206D10B12046216D884731
:100F4000F8BD2068006800F4802080B12068006847
:100F500000F4002028B9606C10B12046616C88470D
:100F60001DE0E06BD8B12046E16B884717E02068B0
:100F7000006800F4807068B92068006820F01000F4
:100F800021680860012084F8350000BF002084F843
:100F9000340000BFE06B10B12046E16B8847606D04
:100FA00038B3606D00F00100F0B1052084F8350021
:100FB0002068006820F001002168086000BF0098E8
:100FC000401C0090B84200D905E02068006800F09D
:100FD00001000028F3D100BF012084F8350000BFD4
:100FE000002084F8340000BFE06C10B12046E16CB2
:100FF000884700BFA4E70000600000202DE9F04111
:101000000446002500F0E0F9074614B90120BDE8C8
:10101000F081606A00B100BF022084F8350000BF93
:10102000002084F8340000BF2068006820F0010030
:10103000216808600AE000F0C7F9C01B052805D93F
:1010400020206065032084F83500E0E72068006810
:1010500000F001000028EED1206805682148054015
:10106000D4E901010843E168084321690843616943
:101070000843A1690843E1690843216A084305431D
:10108000606A042803D1D4E90B01084305432068B2
:1010900005602068456925F00705606A0543606AB8
:1010A00004280DD1A06A0543E06A48B12046FFF745
:1010B0006FFC28B140206065012084F83500A6E768
:1010C000206845612046FFF749FC064694F85C100D
:1010D0003F208840B06000206065012084F8350022
:1010E000002094E73F8010F02DE9F04704460D46BC
:1010F00016461F464FF00008D4F8589000BF94F8E9
:101100003400012802D10220BDE8F087012084F8D4
:10111000340000BF94F83500012825D1022084F85E
:101120003500002060653B46324629462046FFF7E1
:1011300084FC94F85C103F208840C9F808002068BF
:10114000006840F0160021680860206C28B1206813
:10115000006840F00800216808602068006840F0DE
:1011600001002168086006E000BF002084F8340018
:1011700000BF4FF002084046C6E7000070B50446C5
:1011800000F022F906462546681C10B10448007894
:10119000054400BF00F018F9801BA842FAD370BDC7
:1011A0005C000020F8B502460B4600250024002014
:1011B0000021D6E0012606FA01F51E6806EA0504BC
:1011C000AC4274D11E7906F00306012E04D01E79BC
:1011D00006F00306022E13D190684F000326BE408E
:1011E000B0434F00DE68BE40304390605068012637
:1011F0008E40B0431E79C6F300168E4030435060D7
:101200001E7906F00306032E09D0D0684F0003268E
:10121000BE40B0434F009E68BE403043D0601E7950
:1012200006F00306022E13D1CF0802F1200656F86D
:1012300027004E07F70E0F26BE40B0434F07FF0EA4
:101240001E69BE403043CF0802F1200646F8270051
:1012500010684F000326BE40B0431E7906F0030617
:101260004F00BE40304310605E6806F44036002EEA
:1012700076D000BF002600963C4E366846F4804685
:101280003A4F3E603E46366806F48046009600BF00
:1012900000BF374E8F0856F827008E07370F0F26EE
:1012A000BE40B043334EB24202D1002624E057E0A4
:1012B000314EB24201D101261EE0304EB24201D180
:1012C000022619E02E4EB24201D1032614E02D4E23
:1012D000B24201D104260FE02B4EB24201D10526C5
:1012E0000AE02A4EB24201D1062605E0284EB2425B
:1012F00001D1072600E008268F073F0FBE4030438C
:101300001B4E8F0846F82700224E3068A0435E68C7
:1013100006F4801606B120431E4E3060361D30683C
:10132000A0435E6806F4001606B12043194E361D30
:101330003060184E361F3068A0435E6806F40036F1
:1013400006B12043134E361F3060361F3068A0436D
:101350005E6806F4803606B120430E4E083E3060CB
:10136000491C1029FFF426AFF8BD000044380240A4
:10137000083801400000024000040240000802401A
:10138000000C02400010024000140240001802400D
:10139000001C0240083C0140024613690B400BB19F
:1013A000012000E00020704710B5426921EA0203E5
:1013B00002EA010443EA0443836110BD0AB181617A
:1013C00001E00B048361704701480068704700002A
:1013D0005400002003480068034909780844014983
:1013E00008607047540000205C00002010B50D48D4
:1013F000006840F400700B4908600846006840F43B
:10140000806008600846006840F48070086003202F
:1014100000F0A2F80F2000F007F800F02BF80020F1
:1014200010BD0000003C024070B504460E48007834
:101430004FF47A71B1FBF0F00C490968B1FBF0F59B
:10144000284600F02BFC08B1012070BD102C07D2FB
:1014500000222146501E00F041F80548046001E0DA
:101460000120F2E70020F0E75C000020600000208F
:101470005800002008B500BF002000900E4800680A
:1014800040F480400C4908600846006800F4804041
:10149000009000BF00BF00BF00200090081F006840
:1014A00040F08050091F08600846006800F0805036
:1014B000009000BF00BF08BD443802400146084606
:1014C000002809DB00F01F0301229A4043099B001A
:1014D00003F1E023C3F8002100BF70472DE9F05F5E
:1014E00080460D461646002707F0E8FC07463946B9
:1014F0002A46334601F00700C0F1070ABAF1040F8B
:1015000002D94FF0040A01E0C0F1070AD14600F108
:10151000040ABAF1070F02D24FF0000A01E0A0F16D
:10152000030AD4464FF0010A0AFA09FAAAF1010A9D
:101530000AEA020A0AFA0CFA4FF0010B0BFA0CFB4A
:10154000ABF1010B0BEA030B4AEA0B0421464046C0
:1015500007F0BCFCBDE8F09F00BF00F00702064B9F
:1015600019684FF6FF031940044B0B4343EA02216D
:10157000014B196000BF70470CED00E00000FA0558
:1015800070B504460D460CB9012070BD584800687E
:1015900000F00700A84209D255490D7008460068BE
:1015A00000F00700A84201D00120EEE7207800F00B
:1015B000020002281DD1207800F00400042805D183
:1015C0004C48006840F4E0504A490860207800F038
:1015D0000800082805D14748006840F460404549A4
:1015E00008604448006820F0F000A16808434149C1
:1015F0000860207800F00100A8B36068012807D1D6
:101600003C4808380068C0F34040B8B90120BCE746
:101610006068022802D06068032807D1354808387E
:101620000068C0F3406048B90120AEE7314808388F
:101630000068C0F3400008B90120A6E72D48006803
:1016400020F00300616808432A490860FFF7BCFEE8
:10165000064609E0FFF7B8FE801B41F28831884258
:1016600002D9032091E707E02248006800F00C004F
:101670006168B0EB810FEDD11D48006800F00700F4
:10168000A84209D91A490D700846006800F0070001
:10169000A84201D0012078E7207800F00400042857
:1016A00007D11448006820F4E050E168084311496C
:1016B0000860207800F00800082808D10D4800686C
:1016C00020F46040216940EAC1000A49086000F046
:1016D0003FF808490968C1F30311074A515CC84043
:1016E0000649086006480068FFF79EFE00204CE7A8
:1016F000003C024008380240B0A900086000002009
:101700005800002001480068704700006000002079
:1017100000B5FFF7F7FF04490968C1F38221034AC6
:10172000515CC84000BD000008380240C0A9000854
:1017300000B5FFF7E7FF04490968C1F34231034AE6
:10174000515CC84000BD000008380240C0A9000834
:101750002DE9F047002400250026A1462548006811
:1017600000F00C0020B1042805D008283AD105E08B
:10177000DFF8849039E0DFF8849036E01D48001FE0
:10178000006800F03F041B48001F006800F4800060
:1017900078B11A481749091F0968C1F38811A0FBDD
:1017A00001700146224600233846FEF70BFD054630
:1017B0000EE011480F49091F0968C1F38811A0FB09
:1017C00001700146224600233846FEF7FBFC054621
:1017D0000848001F0068C0F30140401C4600B5FBEC
:1017E000F6F902E0DFF8109000BF00BF4846BDE800
:1017F000F0870000083802400024F40000127A004C
:10180000F8B504460CB90120F8BD207800F00100BD
:10181000002874D0F948006800F00C0004280DD0AE
:10182000F648006800F00C00082813D1F348001FA8
:10183000006800F48000B0F5800F0BD1EF48083845
:101840000068C0F34040002859D06068002856D195
:101850000120D9E700BF6068B0F5803F08D1E748B4
:101860000838006840F48030E449083908601EE018
:101870006068B0F5A02F0DD1E0480838006840F44A
:101880008020DE49083908600846006840F480304E
:1018900008600CE0D9480838006820F48030D74947
:1018A000083908600846006820F48020086000BFFE
:1018B000606890B1FFF788FD054606E0FFF784FDFC
:1018C000401B642801D903209EE7CC4808380068F3
:1018D000C0F340400028F1D011E0FFF775FD054648
:1018E00006E0FFF771FD401B642801D903208BE758
:1018F000C24808380068C0F340400028F1D1207881
:1019000000F0020002285FD1BC48006800F00C0023
:1019100058B1BA48006800F00C0008281CD1B7483C
:10192000001F006800F48000B0B9B44808380068AF
:10193000C0F3400020B1E068012801D0012063E736
:10194000AE480838006820F0F800216940EAC1007C
:10195000AA490839086037E0E06800B30120A849C7
:101960000860FFF731FD054606E0FFF72DFD401B3F
:10197000022801D9032047E7A04808380068C0F3CF
:1019800040000028F1D09D480838006820F0F80099
:10199000216940EAC10099490839086014E0002033
:1019A00097490860FFF710FD054606E0FFF70CFDBC
:1019B000401B022801D9032026E790480838006818
:1019C000C0F340000028F1D1207800F0080008287A
:1019D0002CD16069A8B101208A490860FFF7F4FCA6
:1019E000054606E0FFF7F0FC401B022801D9032062
:1019F0000AE782486C300068C0F340000028F1D04C
:101A000014E000207F490860FFF7DEFC054606E091
:101A1000FFF7DAFC401B022801D90320F4E67748DF
:101A20006C300068C0F340000028F1D1207800F04D
:101A30000400042870D1002770483830006800F096
:101A4000805090B900BF002000906C48383000688A
:101A500040F080506949383108600846006800F05D
:101A60008050009000BF00BF01276748006800F465
:101A70008070B0B96448006840F4807062490860C2
:101A8000FFF7A2FC054606E0FFF79EFC401B02287C
:101A900001D90320B8E65C48006800F48070002893
:101AA000F2D000BFA068012808D15448683000680F
:101AB00040F001005149683108601DE0A068052828
:101AC0000DD14E486830006840F004004B49683141
:101AD00008600846006840F0010008600CE04748D4
:101AE0006830006820F00100444968310860084609
:101AF000006820F00400086000BFA068A8B1FFF7EC
:101B000063FC054609E0FFF75FFC401B41F28831AA
:101B1000884202D9032077E626E03848683000681A
:101B2000C0F340000028EED013E0FFF74DFC05465F
:101B300008E0FFF749FC401B41F28831884201D997
:101B4000032061E62D4868300068C0F3400000289B
:101B5000EFD1012F07D129483830006820F080509C
:101B600026493831086000BFA069002845D02348C5
:101B7000006800F00C0008285DD0A069022845D15B
:101B800000201F490866FFF71FFC054606E0FFF727
:101B90001BFC401B022801D9032035E617480838F2
:101BA0000068C0F340600028F1D1D4E90701084380
:101BB000616A40EA81110122A06AC2EB500041EA49
:101BC00000412C20005D41EA00600C49091F0860BB
:101BD00001200B490866FFF7F7FB054606E0FFF713
:101BE000F3FB401B022801D903200DE60348083807
:101BF0000068C0F340600028F1D049E00838024096
:101C000000004742800E47420070004000202149FA
:101C10000866FFF7D9FB054606E0FFF7D5FB401B3A
:101C2000022801D90320EFE51B480068C0F340609B
:101C30000028F2D12CE0A069012800D1E4E5164883
:101C4000001D0668A069012820D006F48001E06923
:101C500081421BD106F03F01206A814216D147F62E
:101C6000C0703040616AB0EB811F0FD106F4403183
:101C70000122A06AC2EB5000B1EB004F06D106F082
:101C800070612C20005DB1EB006F01D00120BBE53D
:101C90000020B9E5000047420038024070B5044614
:101CA0002546681EB0F1807F01D301200FE0681E39
:101CB0004FF0E02148610F214FF0FF3007F006F9A7
:101CC00000204FF0E021886107200861002070BDEE
:101CD0007047704710B50346002200BF93F83C00E0
:101CE000012801D1022010BD012083F83C0000BF73
:101CF00022F0FF00CC6840EA040222F440708C68B5
:101D000040EA040222F480604C6840EA040222F4B3
:101D100000600C6840EA040222F480500C6940EA3A
:101D2000040222F400504C6940EA040222F480408C
:101D3000CC6940EA04021868426400BF002083F8BE
:101D40003C0000BF00BFCEE730B502460B4600BFE7
:101D500092F83C00012801D1022030BD012082F818
:101D60003C0000BF022082F83D0010684468106803
:101D7000816824F070041868044310684460184DAA
:101D80001068A8421BD01068B0F1804F17D0154DD5
:101D90001068A84213D0144D1068A8420FD0134DFC
:101DA0001068A8420BD0124D1068A84207D0114D00
:101DB0001068A84203D0104D1068A84205D121F048
:101DC00080015868014310688160012082F83D005D
:101DD00000BF002082F83C0000BF00BFBDE700004C
:101DE000000001400004004000080040000C0040DA
:101DF00000040140004001400018004010B50446B6
:101E00000CB9012010BD94F83D0028B9002084F8D9
:101E10003C00204600F026F8022084F83D00211DF9
:101E2000206806F0F7F8012084F8460000BF84F827
:101E30003E0001213F200155402001554120015520
:101E400000BF00BF012084F8420043200155442018
:101E500001554520015500BF012084F83D000020B8
:101E6000D0E7000038B5044624492068884218D1DC
:101E700000BF002000902248006840F00800204980
:101E800008600846006800F00800009000BF00BF2E
:101E9000002211463220FFF721FB3220FFF70EFB14
:101EA0002BE018492068884211D100BF0020009023
:101EB0001348001D006840F400301149091D0860F6
:101EC0000846006800F40030009000BF15E00E499D
:101ED0002068884211D100BF002000900848001DF2
:101EE000006840F480200649091D08600846006823
:101EF00000F48020009000BF00BF38BD000C0040FF
:101F0000403802400044014000480140014691F839
:101F10003D00012801D001207047022081F83D00DA
:101F20000868C06840F001000B68D8601A4B086868
:101F300098421BD00868B0F1804F17D0174B086843
:101F4000984213D0164B086898420FD0154B08687A
:101F500098420BD0144B0868984207D0134B08687E
:101F6000984203D0124B086898420CD108688068E8
:101F700000F00702062A0CD00868006840F0010053
:101F80000B68186005E00868006840F001000B6805
:101F900018600020C0E7000000000140000400407D
:101FA00000080040000C00400004014000400140D7
:101FB000001800402DE9F04104460D46002700BFFF
:101FC00094F83C00012802D10220BDE8F0810120F4
:101FD00084F83C0000BF022084F83D002068866839
:101FE00026F0770626F47F46206886602868502809
:101FF00033D00CDC202850D004DC00284BD0102833
:1020000051D149E0302849D040284CD139E06028EE
:102010002DD0702807D0B0F5805F03D0B0F5005FF9
:1020200041D10DE041E0D5E902136A68206806F06D
:102030006EF82068866846F077062068866034E08F
:10204000D5E902136A68206806F061F820688068A4
:1020500040F480402168886027E0EA686968206869
:1020600006F046F95021206806F05CF81DE0EA68A9
:102070006968206806F04FF96021206806F052F880
:1020800013E0EA686968206806F032F940212068A8
:1020900006F048F809E000BF00BF00BF29682068CB
:1020A00006F040F801E0012700BF00BF012084F8DE
:1020B0003D0000BF002084F83C0000BF384684E7A4
:1020C000704710B5044620680069C0F34000D8B1DD
:1020D0002068C068C0F34000B0B16FF00200216812
:1020E0000861012020772068806900F0030018B1A2
:1020F0002046FFF7E5FF05E0204600F097F920466F
:1021000000F0A8FA0020207720680069C0F3800062
:10211000D8B12068C068C0F38000B0B16FF004008F
:1021200021680861022020772068806900F44070EF
:1021300018B12046FFF7C4FF05E0204600F076F90D
:10214000204600F087FA0020207720680069C0F35D
:10215000C000D8B12068C068C0F3C000B0B16FF053
:10216000080021680861042020772068C06900F019
:10217000030018B12046FFF7A3FF05E0204600F05A
:1021800055F9204600F066FA0020207720680069A3
:10219000C0F30010D8B12068C068C0F30010B0B11F
:1021A0006FF0100021680861082020772068C0695E
:1021B00000F4407018B12046FFF782FF05E020468A
:1021C00000F034F9204600F045FA0020207720681E
:1021D000006900F0010058B12068C06800F00100FB
:1021E00030B16FF0010021680861204600F0BAFAB2
:1021F00020680069C0F3C01058B12068C068C0F3FF
:10220000C01030B16FF08000216808612046FFF7F0
:102210005FFD20680069C0F3801058B12068C06875
:10222000C0F3801030B16FF0400021680861204693
:1022300000F03EFE20680069C0F3401058B12068ED
:10224000C068C0F3401030B16FF020002168086111
:102250002046FFF73EFD10BD10B586B004461421A0
:1022600001A8FEF747F86749206888421ED100BFE1
:10227000002000906448006840F010006249086047
:102280000846006800F01000009000BF00BF4FF447
:10229000D44001900220029000200390049001207D
:1022A000059001A95948FEF77DFFA8E0584920682C
:1022B00088421DD100BF002000905348006840F0C4
:1022C0000400514908600846006800F004000090CE
:1022D00000BF00BF802001900220029000200390E8
:1022E00004900220059001A94A48FEF75BFF86E0B2
:1022F0004949206888421DD100BF00200090424813
:10230000006840F00400404908600846006800F09A
:102310000400009000BF00BF402001900220029006
:102320000020039004900320059001A93948FEF78E
:1023300039FF64E03949206888421DD100BF002080
:1023400000903148006840F010002F4908600846AE
:10235000006800F01000009000BF00BF4020019016
:10236000022002900020039004900320059001A910
:102370002648FEF717FF42E02949206888421DD110
:1023800000BF002000902048006840F020001E4957
:1023900008600846006800F02000009000BF00BF01
:1023A000402001900220029000200390049003201E
:1023B000059001A91B48FEF7F5FE20E01A492068A8
:1023C00088421CD100BF002000900F48006840F0F8
:1023D00020000D4908600846006800F020000090C9
:1023E00000BF00BF802001900220029000200390D7
:1023F00004900320059001A90A48FEF7D3FE06B019
:1024000010BD0000000001403038024000100240C2
:102410000004004000080240000401400040014068
:1024200000440140001402400048014070472DE97B
:10243000F04104460D461646002700BF94F83C00C4
:10244000012802D10220BDE8F081012084F83C007F
:1024500000BF36B1042E1BD0082E31D00C2E5ED119
:1024600045E02946206805F067FE2068806940F055
:102470000800216888612068806920F004002168D4
:10248000886120688069296908432168886148E07B
:102490002946206805F088FE2068806940F40060C5
:1024A000216888612068806920F4806021688861E3
:1024B00020688069296940EA01202168886130E04C
:1024C0002946206805F0AEFE2068C06940F008008B
:1024D0002168C8612068C06920F004002168C861D3
:1024E0002068C069296908432168C86119E0294644
:1024F000206805F0D3FE2068C06940F400602168C0
:10250000C8612068C06920F480602168C8612068C3
:10251000C069296940EA01202168C86101E00127FA
:1025200000BF00BF00BF002084F83C0000BF384659
:1025300089E710B504460CB9012010BD94F83D00A0
:1025400028B9002084F83C00204600F025F802203D
:1025500084F83D00211D206805F05CFD012084F811
:10256000460000BF84F83E0001213F200155402075
:1025700001554120015500BF00BF012084F84200F1
:1025800043200155442001554520015500BF01203D
:1025900084F83D000020D0E708B5294A016891423F
:1025A0000FD100BF002100912649096841F00101C7
:1025B000244A11601146096801F00101009100BF31
:1025C0003DE0214A0168914211D100BF00210091F4
:1025D0001C49091F096841F002011A4A121F1160C3
:1025E0001146096801F00201009100BF27E0174A77
:1025F000016891420FD100BF002100911149096883
:1026000041F002010F4A11601146096801F0020110
:10261000009100BF13E00E4A016891420FD100BF44
:10262000002100910749096841F48031054A116091
:102630001146096801F48031009100BF00BF08BD58
:102640000000014044380240000400400004014002
:10265000004001407047000070B504460D4615B9B2
:1026600094F83E000BE0042D02D13F20005D06E00F
:10267000082D02D14020005D01E04120005D0128CD
:1026800001D0012070BD1DB9022084F83E000EE08B
:10269000042D03D102213F20015508E0082D03D16C
:1026A00002214020015502E0022141200155012272
:1026B0002946206805F01AFD23492068884203D086
:1026C00022492068884201D1012000E0002028B181
:1026D0002068406C40F40040216848641A49206832
:1026E00088421BD02068B0F1804F17D0184920686D
:1026F000884213D01749206888420FD016492068B5
:1027000088420BD011492068884207D013492068BD
:10271000884203D01249206888420CD12068806822
:1027200000F00706062E0CD02068006840F001007B
:102730002168086005E02068006840F00100216819
:10274000086000209EE700000000014000040140F6
:102750000004004000080040000C00400040014020
:102760000018004010B52DED0C8B0446F749206889
:10277000096888427ED1F6480088401CF4490880E8
:10278000F4480088401CF3490880F3480088401C46
:10279000F1490880EF4800880F2834DB0020ED491C
:1027A000088007F08BF9ED49087007F059F9EC49FA
:1027B000087007F0A9F9EB49087007F0D9F9EA4960
:1027C0000870E64800780F280CD0E8480078012807
:1027D00008D1E7480078022804D00122E549E648FC
:1027E00001F0E6F8DF4800783F280CD0DF48007899
:1027F000012808D1DE480078022804D00122DD49F2
:10280000DE4801F0D5F8D248008814287CDB00208F
:10281000CF490880DA4841680846FDF70FFF41ECD0
:102820001B0BD84890ED001BB0EE410AF0EE610A98
:1028300053EC102B51EC1B0BFDF70BFE41EC1A0B6C
:10284000FDF740FF08EE100A9FEDCF0AF0EE409A28
:102850009FEDCD0AF0EE408A9FEDCB0AB0EE409A94
:102860009FEDCA0AB4EEC08AF1EE10FA08D29FEDCD
:10287000C80A00E0FEE238EE000AB0EE408A0CE042
:102880009FEDC40AB4EEC08AF1EE10FA05DD9FEDAB
:10289000C00A38EE400AB0EE408AB44800780128F9
:1028A0000AD1F2EE040A68EE200AB0EE600AB548DA
:1028B00007F0D6FAF0EE409AAD480078012824D10E
:1028C000B5480068FDF7A9FE41EC1C0BB34890ED3C
:1028D000001BB0EE410AF0EE610A53EC102B51ECF4
:1028E0001C0BFDF7B6FD41EC1B0BFDF7EBFE0AEEF2
:1028F000100AB0EE4A0AA94807F0B2FAF0EE408A90
:10290000A748C0ED008A7DE2ADE299480078022830
:1029100070D1A44890ED000A10EE101A0846FDF799
:102920008DFE41EC1C0BA04890ED001BB0EE410A5F
:10293000F0EE610A53EC102B51EC1C0BFDF789FDF6
:1029400041EC1B0BFDF7BEFE0AEE100AB0EE4A0A80
:10295000954807F085FA954880ED000A914890ED7A
:10296000010A10EE101A0846FDF768FE41EC1D0B37
:102970008F4890ED001BB0EE410AF0EE610A53EC77
:10298000102B51EC1D0BFDF764FD41EC1C0B81F08D
:10299000004141EC1B0BFDF795FE0AEE100AB0EE6C
:1029A0004A0A834807F05CFA7D4880ED000A7F48B8
:1029B00090ED000ADFED7F0AB4EEE00AF1EE10FAC6
:1029C00002DD90ED000A01E09FED7A0ADFED7A0A60
:1029D000B4EEE00AF1EE10FA10D2744890ED000A5D
:1029E000DFED740AB4EEE00AF1EE10FA03DD90EDCB
:1029F000000A05E033E09FED6F0A01E09FED6E0AEB
:102A00006A4880ED000A664890ED000ADFED690A29
:102A1000B4EEE00AF1EE10FA02DD90ED000A01E0FA
:102A20009FED640ADFED640AB4EEE00AF1EE10FAFD
:102A30000FD25B4890ED000ADFED5E0AB4EEE00ACB
:102A4000F1EE10FA02DD90ED000A04E09FED590A64
:102A500001E09FED590A524880ED000AD2E1444856
:102A60000078032823D155480068FDF7D6FD41ECD6
:102A70001C0B534890ED001BB0EE410AF0EE610ACA
:102A800053EC102B51EC1C0BFDF7E0FC41EC1B0B45
:102A9000FDF718FE0AEE100AB0EE4A0A484807F0A1
:102AA000DFF9B0EE409A414880ED009AAAE1304843
:102AB0000078042849D138480068FDF7AEFD41ECA4
:102AC0001C0B364890ED001BB0EE410AF0EE610A97
:102AD00053EC102B51EC1C0BFDF7BBFC41EC1B0B1A
:102AE000FDF7F0FD0AEE100AB0EE4A0A2B4807F097
:102AF000B7F9F0EE408A31480068FDF78EFD41ECF1
:102B00001C0B2F4890ED001BB0EE410AF0EE610A5D
:102B100053EC102B51EC1C0BFDF798FC41EC1B0BFC
:102B2000FDF7D0FD0AEE100AB0EE4A0A244807F07D
:102B300097F9B0EE409A9FED1F0AB4EEC09AF1EEFD
:102B400010FA3FDDB0EE490A3EE07CE028040020A8
:102B50004A0000204C0000204E00002018000020F9
:102B6000190000201A0000201B0000201C0000207B
:102B70001D00002048000020E406002090050020F1
:102B8000200A00200001002000000000000034C3E3
:102B90000000B44300003443200000206001002006
:102BA0001000002084030020200200200C000020E0
:102BB000800200200000E1C30000E1432400002067
:102BC000C00100201FED050A5FED050AB4EEE00A22
:102BD000F1EE10FA0CD21FED090AB4EEC09AF1EE34
:102BE00010FA02DDB0EE490A04E01FED0E0A01E022
:102BF0001FED0F0AA14880ED000A1FED120AF4EE46
:102C0000C08AF1EE10FA02DDB0EE680A01E01FEDB5
:102C1000170A5FED170AB4EEE00AF1EE10FA0CD2D3
:102C20001FED1C0AF4EEC08AF1EE10FA02DDB0EEE0
:102C3000680A04E01FED210A01E01FED210A904817
:102C400080ED000ADEE08F48007850B98B4890EDA7
:102C5000000A80ED000A8A4890ED000A80ED000A23
:102C6000D0E088480078052870D1874890ED000AA8
:102C700010EE101A0846FDF7E1FC41EC1C0B8348EE
:102C800090ED001BB0EE410AF0EE610A53EC102B00
:102C900051EC1C0BFDF7DDFB41EC1B0BFDF712FDAE
:102CA0000AEE100AB0EE4A0A784807F0D9F87348DD
:102CB00080ED000A744890ED010A10EE101A0846E3
:102CC000FDF7BCFC41EC1D0B714890ED001BB0EE14
:102CD000410AF0EE610A53EC102B51EC1D0BFDF78D
:102CE000B8FB41EC1C0B81F0004141EC1B0BFDF7E4
:102CF000E9FC0AEE100AB0EE4A0A654807F0B0F89F
:102D00005F4880ED000A5D4890ED000ADFED610A42
:102D1000B4EEE00AF1EE10FA02DD90ED000A01E0F7
:102D20009FED5C0ADFED5C0AB4EEE00AF1EE10FA0A
:102D300010D2524890ED000ADFED560AB4EEE00AD8
:102D4000F1EE10FA03DD90ED000A05E05AE09FED88
:102D5000510A01E09FED500A484880ED000A4848BA
:102D600090ED000ADFED4B0AB4EEE00AF1EE10FA46
:102D700002DD90ED000A01E09FED460ADFED460A14
:102D8000B4EEE00AF1EE10FA0FD23D4890ED000AE1
:102D9000DFED400AB4EEE00AF1EE10FA02DD90ED4C
:102DA000000A04E09FED3B0A01E09FED3B0A344836
:102DB00080ED000A344890ED030A10EE101A084620
:102DC000FDF73CFC41EC1D0B344890ED001BB0EED0
:102DD000410AF0EE610A53EC102B51EC1D0BFDF78C
:102DE00038FB41EC1C0B81F0004141EC1B0BFDF763
:102DF00069FC0AEE100AB0EE4A0A284807F030F8DB
:102E0000F0EE409A2648C0ED009A26480078F8B1C6
:102E1000234890ED001A1A48D0ED000A174890EDAB
:102E2000000A214804F074FE1F4890ED032AF0EEDA
:102E3000421A90ED022AB0EE421A90ED012AF0EE0D
:102E4000420A90ED002AB0EE420A04F043FE09E087
:102E50005FEDB31A1FEDB41A5FEDB50A1FEDB60AA8
:102E600004F038FE00BF114800880A2802DB002069
:102E70000E490880BDEC0C8B10BD00000C0000203A
:102E8000100000201D0000208403002020020020EC
:102E9000800200200000AFC30000AF43E00200202A
:102EA000140000201C000020A00000204E00002084
:102EB0007047704770B50446002520684069C0F32C
:102EC000C01594F83D00212817D1B5B100BF00BF4F
:102ED0002168143151E8001F21F08000216814316D
:102EE00041E80002002AF3D100BF606B10B1606BB3
:102EF000FDF7F9FE204605F088FB20684069C0F325
:102F0000801594F83E00222817D1B5B100BF00BF4C
:102F10002168143151E8001F21F04000216814316C
:102F200041E80002002AF3D100BFA06B10B1A06BF2
:102F3000FDF7D9FE204605F022FB002070BD000001
:102F400038B5044620680068C0F3C00050B100BF27
:102F50000020009020680068009020684068009081
:102F600000BF00BF01220249204600F06EFC38BDC0
:102F70002C0000202DE9F84F0446206805682068E1
:102F8000C668206847694FF00009CA4605F00F0976
:102F9000B9F1000F0AD105F0200038B106F0200089
:102FA00020B1204605F044FBBDE8F88FB9F1000FD1
:102FB0007CD007F0010018B906F49070002875D095
:102FC00005F0010030B106F4807018B1206C40F0BB
:102FD0000100206405F0040030B107F0010018B1D1
:102FE000206C40F00200206405F0020030B107F0D0
:102FF000010018B1206C40F00400206405F00800C6
:1030000048B106F0200010B907F0010018B1206C9B
:1030100040F008002064206C002846D005F0200015
:1030200028B106F0200010B1204605F001FB206811
:103030004069C0F3801A206C00F0080010B9BAF1A2
:10304000000F2DD0204605F09AFA2068406900F064
:103050004000402820D100BF00BF2168143151E852
:10306000001F21F040002168143141E80002002ACD
:10307000F3D100BFA06B50B17548A16B0865A06B80
:10308000FDF787FE88B1A06B016D88470DE02046F3
:10309000FFF756FF09E009E02046FFF751FF04E083
:1030A0002046FFF74DFF002020647DE7206B0128BC
:1030B00076D105F01000002872D006F0100000282C
:1030C000FAD000BF002000902068006800902068BF
:1030D0004068009000BF00BF2068406900F04000D9
:1030E00040285ED1A06B006840681FFA80F8B8F1F4
:1030F000000F54D0A08D404551DDA4F82E80A06B68
:10310000C069B0F5807F43D000BF00BF21680C319B
:1031100051E8001F21F4807021680C3141E8000261
:10312000002AF3D100BF00BF00BF2168143151E86D
:10313000001F21F001002168143141E80002002A3B
:10314000F3D100BF00BF00BF2168143151E8001F58
:1031500021F040002168143141E80002002AF3D137
:1031600000BF202084F83E000020206300BF00BF85
:1031700021680C3151E8001F21F0100021680C314A
:1031800041E80002002AF3D100BFA06BFDF7ABFDC0
:10319000A08DE28D801A81B22046FFF78AFE03E7F8
:1031A00040E0A08DE18D401A1FFA80F8E08DC0B399
:1031B000B8F1000F35D000BF00BF21680C3151E8D5
:1031C000001F21F4907021680C3141E80002002AB0
:1031D000F3D100BF00BF00BF2168143151E8001FC8
:1031E00021F001002168143141E80002002AF3D1E6
:1031F00000BF202084F83E000020206300BF00BFF5
:1032000021680C3151E8001F21F0100021680C31B9
:1032100041E80002002AF3D100BF41462046FFF7F3
:1032200048FEC1E605F0800030B106F0800018B11C
:10323000204605F01CFCB7E605F0400030B106F072
:10324000400018B1204605F0D0F9ADE600BFABE66E
:10325000E583000810B504460CB9012010BDA06933
:1032600000B100E000BF94F83D0028B9002084F8C8
:103270003C00204600F028F8242084F83D00206817
:10328000C06820F400502168C860204605F04CFA60
:103290002068006920F49040216808612068406936
:1032A00020F02A00216848612068C06840F400507E
:1032B0002168C86000202064202084F83D0084F844
:1032C0003E000020CAE7000010B586B00446142175
:1032D00001A8FDF70FF8F9492068884275D100BFB1
:1032E00000200090F648006840F40020F44908608F
:1032F0000846006800F40020009000BF00BF00BF37
:1033000000200090EE481038006840F00400EC49BE
:10331000103908600846006800F00400009000BF03
:1033200000BF4FF440600190022002900020039003
:10333000032004900820059001A9E248FDF732FF20
:10334000E148E2490860400548600021DF488160AB
:10335000C1604FF480610161002141618161C161FF
:1033600001624162FDF74AFE08B1FDF7B9FC00BFFA
:10337000D648A063846300BFD3483030D449086086
:103380004FF0006048604021D14881600021C16059
:103390004FF480610161002141618161C16101627D
:1033A0004162FDF72BFE08B1FDF79AFC00BFC8484B
:1033B0006063846300BF002202213420FEF78EF890
:1033C0003420FEF77BF811E2FFE7C249206888420B
:1033D00055D100BF00200090B948006840F480102B
:1033E000B74908600846006800F48010009000BFEC
:1033F00000BF00BF00200090B1481038006840F0C6
:103400000400AF49103908600846006800F0040065
:10341000009000BF00BF00BF002000900846006879
:1034200040F0080008600846006800F008000090BE
:1034300000BF00BF8814019002200290002003907A
:10344000032004900820059001A99E48FDF7AAFEDC
:103450000420019002200290002003900320049099
:103460000820059001A99C48FDF79CFE002203213D
:103470003520FEF733F83520FEF720F8B6E19749FE
:10348000206888425BD100BF002000908C48001D5E
:10349000006840F010008A49091D0860084600686D
:1034A00000F01000009000BF00BF00BF002000909F
:1034B00083481038006840F00100814910390860E5
:1034C0000846006800F00100009000BF00BF4FF404
:1034D000C06001900220029000200390032004901D
:1034E0000720059001A97E48FDF75CFE7D487E49D6
:1034F00008604FF00060486000217B488160C16037
:103500004FF480610161002141618161C1614FF42B
:103510000031016200214162FDF770FD08B1FDF745
:10352000DFFB00BF7048A063846300BF002202215C
:103530002520FDF7D3FF2520FDF7C0FF56E16B499D
:103540002068884259D100BF002000905C48006884
:1035500040F400305A4908600846006800F4003022
:10356000009000BF00BF00BF0020009054481038FA
:10357000006840F0080052491039086008460068A9
:1035800000F00800009000BF00BF60200190022002
:10359000029000200390032004900720059001A9C9
:1035A0004D48FDF7FFFD48484830514908604FF04D
:1035B0000060486000214E488160C1604FF4806126
:1035C0000161002141618161C1614FF440310162BB
:1035D00000214162FDF712FD08B1FDF781FB00BF3C
:1035E0004348A063846300BF002211462620FDF7F4
:1035F00075FF2620FDF762FFF8E03E49206888420B
:103600007CD100BF002000902D48006840F480204D
:103610002B4908600846006800F48020009000BF35
:1036200000BF00BF0020009025481038006840F01F
:1036300008002349103908600846006800F00800B7
:10364000009000BF00BF4FF4407001900220029034
:1036500000200390032004900720059001A91E4834
:10366000FDF7A0FD18481838234908604FF00060A6
:103670004860002120488160C1604FF48061016191
:103680000021416181614FF48071C1614902016291
:1036900000214162FDF7B2FC08B1FDF721FB00BF3C
:1036A0001548A063846300BF002201212720FDF795
:1036B00015FF2720FDF702FF98E01FE0004C0040B7
:1036C00040380240000802404060024028070020C5
:1036D0008807002000500040000C0240001001400C
:1036E0000000024040640240E8070020004400401F
:1036F0004808002000480040A80800203C492068F5
:10370000884273D100BF002000903A48006840F022
:103710002000384908600846006800F0200000904A
:1037200000BF00BF00BF002000903248143800687E
:1037300040F040002F49143908600846006800F046
:103740004000009000BF00BF4FF484400190022071
:10375000029000200390032004900820059001A906
:103760002548FDF71FFD254825490860800548606C
:10377000002123488160C1604FF480610161002114
:1037800041618161C16101624162FDF737FC08B1AD
:10379000FDF7A6FA00BF1A48A063846300BF17486C
:1037A0007830184908604FF0206048604021154883
:1037B00081600021C1604FF480610161002141619D
:1037C0008161C16101624162FDF718FC08B1FDF73A
:1037D00087FA00BF0B486063846300BF00220221A8
:1037E0004720FDF77BFE4720FDF768FE06B010BDC1
:1037F000001401404438024000180240286402408E
:10380000080900206809002070B504460D461646D8
:1038100094F83E00202816D105B10EB9012070BDE4
:1038200000BF94F83C00012801D10220F7E70120F5
:1038300084F83C0000BF0020206332462946204621
:1038400005F088F8EBE70220E9E770B504460D467D
:10385000164694F83E00202816D105B10EB9012075
:1038600070BD00BF94F83C00012801D10220F7E7A9
:10387000012084F83C0000BF002020633246294626
:10388000204605F0CFF8EBE70220E9E770B50446E3
:1038900000250E492068884216D109220C490D489E
:1038A000FFF7D3FF0A480078F1280DD10848007AC5
:1038B000112809D1002005E0054A411C515C064A47
:1038C0001154401C0728F7DB70BD00000050004079
:1038D00060030020D40500205603002070472DE926
:1038E000F84F04460E46174699464FF0000A94F8E2
:1038F0003D0020285AD106B117B90120BDE8F88F44
:1039000000BF94F83C00012801D10220F6E7012015
:1039100084F83C0000BF00202064212084F83D0092
:10392000FDF752FD8246A784E784A068B0F5805F6A
:1039300004D1206910B90025B04602E035464FF0A9
:10394000000800BF002084F83C0000BF1BE0534685
:10395000002280212046CDF8009005F0B8F808B18B
:103960000320CBE745B9B8F80000C0F30800216890
:10397000486008F1020803E02878216848606D1C5F
:10398000E08C401EE084E08C0028E0D15346002209
:1039900040212046CDF8009005F099F808B10320A9
:1039A000ACE7202084F83D000020A7E70220A5E72F
:1039B000F7B50446154694F83D00202846D10198F5
:1039C00000B10DB90120FEBD00BF94F83C000128F4
:1039D00001D10220F7E7012084F83C0000BF0198E4
:1039E0002062A584E58400202064212084F83D0025
:1039F0001748616BC8631748616B08641648616BB0
:103A0000C8640020616B086501AE23681A1D316827
:103A10002B46606BFDF768FB6FF040002168086083
:103A200000BF002084F83C0000BF00BF00BF216839
:103A3000143151E8001F41F080002168143141E841
:103A40000002002AF3D100BF0020BCE70220BAE741
:103A50001985000871850008F983000870477047D0
:103A600000BFFEE738B504462146684606F076FDFD
:103A700003231A4669460B48FFF731FF3220FDF752
:103A80007DFB03231A4669460648FFF728FF3220CC
:103A9000FDF774FB03231A4669460248FFF71FFF30
:103AA00038BD00001806002038B504462146684697
:103AB00006F054FD03231A4669460B48FFF70FFF33
:103AC0003220FDF75BFB03231A4669460648FFF7E1
:103AD00006FF3220FDF752FB03231A4669460248CF
:103AE000FFF7FDFE38BD00005C06002010B507485A
:103AF0000068C06840F0100004490968C8600922E5
:103B000003490248FFF780FE10BD00005C0600205C
:103B1000680B002010B514220249A1F1140000F036
:103B200003F810BD300B002010B5234B1B685B69F8
:103B300043F04003204C246863611F4B1B68DB6823
:103B400043F010031C4C2468E3601C4B1B681B688B
:103B500023F00103194C2468236007E0174B1B680E
:103B60001B6823F00103154C24682360134B1B686A
:103B70001B6803F00103002BF0D1114B0F4C24689C
:103B8000A3600E4B1B68D8600C4B1B6819610B4B74
:103B90001B685A60094B1B681B6843F48023074C61
:103BA00024682360054B1B681B6843F00103034C2A
:103BB0002468236010BD000018060020E8070020DC
:103BC0000410014010B5234B1B685B6943F04003B0
:103BD000204C246863611F4B1B68DB6843F01003B3
:103BE0001C4C2468E3601C4B1B681B6823F001031A
:103BF000194C2468236007E0174B1B681B6823F0EF
:103C00000103154C24682360134B1B681B6803F0E9
:103C10000103002BF0D1114B0F4C2468A3600E4B15
:103C20001B68D8600C4B1B6819610B4B1B685A60F2
:103C3000094B1B681B6843F48023074C24682360EE
:103C4000054B1B681B6843F00103034C2468236089
:103C500010BD0000A0060020A80800200448004075
:103C600008B500BF002000902A48006840F400100A
:103C7000284908600846006800F40010009000BF62
:103C800000BF00BF002000900846006840F480009C
:103C900008600846006800F48000009000BF00BF84
:103CA000002211460C20FDF719FC0C20FDF706FC44
:103CB000002211460D20FDF711FC0D20FDF7FEFB43
:103CC000002211460F20FDF709FC0F20FDF7F6FB3F
:103CD000002211461020FDF701FC1020FDF7EEFB3D
:103CE000002211463920FDF7F9FB3920FDF7E6FBEC
:103CF000002211463A20FDF7F1FB3A20FDF7DEFBEA
:103D0000002211464520FDF7E9FB4520FDF7D6FBD3
:103D100008BD00003038024000B587B0142102A869
:103D2000FCF7E8FA00BF002001905848006840F016
:103D30001000564908600846006800F01000019025
:103D400000BF00BF00BF002001900846006840F09F
:103D5000200008600846006800F02000019000BFC5
:103D600000BF00BF002001900846006840F08000BE
:103D700008600846006800F08000019000BF00BFA6
:103D800000BF002001900846006840F00400086071
:103D90000846006800F00400019000BF00BF00BFAB
:103DA000002001900846006840F0020008600846C4
:103DB000006800F00200019000BF00BF00BF0020BB
:103DC00001900846006840F040000860084600681E
:103DD00000F04000019000BF00BF00BF0020019034
:103DE0000846006840F0080008600846006800F0D7
:103DF0000800019000BF00BF00BF002001900846EE
:103E0000006840F0010008600846006800F001000A
:103E1000019000BF00BF002201211D48FDF7CEFA2E
:103E2000012230211A48FDF7C9FA0122032119485D
:103E3000FDF7C4FA4FF47F400290002003900490F5
:103E400002A91548FDF7AEF9312002900120039038
:103E500000200490059002A90D48FDF7A3F9032066
:103E600002900120039000200490059002A90948C7
:103E7000FDF798F94BF6FF50029000200390049054
:103E800002A90648FDF78EF907B000BD30380240A0
:103E900000080240000402400014024000180240E2
:103EA00000B587B01C216846FCF724FA164817496C
:103EB0000860A82048600021144881603121C16059
:103EC0000021016180218161FDF798FF08B1FCF7B5
:103ED00007FF0E48FEF72DFB08B1FCF701FF60203D
:103EE0000090002001900220029000200490002207
:103EF00069460648FEF79BFA08B1FCF7F1FE034855
:103F0000FEF7AAF907B000BD0044014000050020FB
:103F100000B587B01C216846FCF7ECF91648174934
:103F20000860A82048600021144881603121C160E8
:103F30000021016180218161FDF760FF08B1FCF77C
:103F4000CFFE0E48FEF7F5FA08B1FCF7C9FE602077
:103F50000090002001900220029000200490002296
:103F600069460648FEF763FA08B1FCF7B9FE034854
:103F7000FEF772F907B000BD004801404805002077
:103F800000B591B000200F9010901C2108A8FCF7FC
:103F9000B1F920216846FCF7ADF92F482F49086098
:103FA00040F24730486000212C48816040F2CF71D8
:103FB000C1600021016141618161FEF7BAFA08B177
:103FC000FCF78EFE00200F9010900FA92348FDF7FC
:103FD000BBFE08B1FCF784FE602008900020099029
:103FE0000A900B900C900D900E90002208A91B488F
:103FF000FEF71DFA08B1FCF773FE042208A9174862
:10400000FEF715FA08B1FCF76BFE082208A9134861
:10401000FEF70DFA08B1FCF763FE0C2208A90F4861
:10402000FEF705FA08B1FCF75BFE00200090019056
:104030000290039004904FF40050059000200790E8
:1040400069460648FDF746FE08B1FCF749FE0348FD
:10405000FEF702F911B000BD0000014098030020F6
:1040600000B589B00020079008901C216846FCF735
:1040700041F9194819490860532048600021174840
:1040800081603121C1600021016180218161FEF7E1
:1040900050FA08B1FCF724FE00200790089007A909
:1040A0000E48FDF751FE08B1FCF71AFE60200090A3
:1040B0000020019002200290002004900422694612
:1040C0000648FEF7B4F908B1FCF70AFE0348FEF70C
:1040D000C3F809B000BD000000040040E003002068
:1040E00000B587B0002003900490059006900190E1
:1040F0000290144814490860532048600021124877
:10410000816040F2E731C160002101618161FDF70A
:1041100075FE08B1FCF7E4FD4FF48050039003A94D
:104120000948FDF747FF08B1FCF7DAFD00200190D0
:10413000029001A90448FDF707FE08B1FCF7D0FD85
:1041400007B000BD000C00402804002000B591B06D
:1041500000200F9010901C2108A8FCF7CBF820211C
:104160006846FCF7C7F8244824490860A72048603F
:104170000021224881603121C1600021016141613B
:1041800080218161FEF7D5F908B1FCF7A9FD002077
:104190000F9010900FA91948FDF7D6FD08B1FCF754
:1041A0009FFD602008900020099002200A900020C6
:1041B0000B900C900D900E90002208A90F48FEF76E
:1041C00036F908B1FCF78CFD0020009001900290B8
:1041D000039004904FF4005005900020079069462A
:1041E0000648FDF777FD08B1FCF77AFD0348FEF7B6
:1041F00033F811B000BD000000040140700400203D
:1042000000B587B01C216846FCF774F813481449C0
:10421000086040F24730486000211148816040F258
:10422000CF71C160002101618161FEF782F908B19F
:10423000FCF756FD60200090002001900290049051
:10424000042269460648FEF7F2F808B1FCF748FD7B
:104250000348FEF701F807B000BD00000040014030
:10426000B804002010B50B480B4908604FF41650F5
:104270004860002108488160C16001610C214161F2
:1042800000218161C161FEF7E5FF08B1FCF728FD5F
:1042900010BD0000004C00409005002010B50B48F8
:1042A0000B4908604FF4E130486000210848816004
:1042B000C16001610C21416100218161C161FEF792
:1042C000C9FF08B1FCF70CFD10BD00000050004014
:1042D000D405002010B50B480B4908604FF4E130BD
:1042E0004860002108488160C16001610C21416182
:1042F00000218161C161FEF7ADFF08B1FCF7F0FC60
:1043000010BD0000001001401806002010B50B4839
:104310000B4908604FF4E130486000210848816093
:10432000C16001610C21416100218161C161FEF721
:1043300091FF08B1FCF7D4FC10BD00000044004020
:104340005C06002010B50B480B4908604FF4E130C3
:104350004860002108488160C16001610C21416111
:1043600000218161C161FEF775FF08B1FCF7B8FC5F
:1043700010BD000000480040A006002010B50B480A
:104380000B4908604FF416504860002108488160CE
:10439000C16001610C21416100218161C161FEF7B1
:1043A00059FF08B1FCF79CFC10BD0000001401404F
:1043B000E406002000BFFEE7F0B58FB006460027F8
:1043C0000E2507E0681E124951F8200041F825002B
:1043D000681EC5B2002DF5DC0D4806603C22014682
:1043E0006846FBF76EFF0B4B04220F216846FBF774
:1043F0001AFF012404E05DF824000744601CC4B2E5
:104400000E2CF8DB0D2097FBF0F00FB0F0BD000094
:10441000680A0020F7960008F0B58FB0064600271E
:104420000E2507E0681E124951F8200041F82500CA
:10443000681EC5B2002DF5DC0D4806603C22014621
:104440006846FBF73EFF0B4B04220F216846FBF743
:10445000EAFE012404E05DF824000744601CC4B2B5
:104460000E2CF8DB0D2097FBF0F00FB0F0BD000034
:104470002C0A0020F796000800BFFEE710B52DEDCE
:104480000C8B0446B0EE40AAF0EE60AAB0EE41BA42
:10449000F0EE61BAB0EE42CAF0EE62CAB0EE43DAB4
:1044A000F0EE63DAB0EE448AF0EE648AB0EE459A3C
:1044B00084ED02AB84ED04BB84ED06CB51EC1D0B07
:1044C000FCF700F9E0649FED0A0A84ED140A9FED01
:1044D000080A84ED150A9FED060A84ED160A84ED9C
:1044E000118AC4ED108A84ED129ABDEC0C8B10BDBC
:1044F000000000007047000070B504460D462878A3
:104500000C287DD2DFE800F07C06CE617CD9EFF587
:10451000FCEBDFE500BF00BF9FED800A804880ED27
:10452000000A9FED7E0A7F4880ED000A7E4890F8E1
:104530009410001D50F821007B490860084600686F
:10454000012826DD1AE0764890ED000AF3EE090A0C
:1045500030EE600A80ED000A0F20FCF70FFE704875
:1045600090ED000ADFED710AB4EEE00AF1EE10FA08
:1045700004D29FED6F0A80ED000A09E0684890EDD3
:10458000000ADFED6B0AB4EEE00AF1EE10FADADCB5
:1045900016E00BE0624890ED000ADFED660A30EEAF
:1045A000600A80ED000A0220FCF7E8FD5C4890ED0F
:1045B000000ADFED610AB4EEE00AF1EE10FAE9DC80
:1045C00003205E490870002070BD00BF00BF02E0FC
:1045D0000520FCF7D3FD5A4800783F28F8D102E0C7
:1045E0000520FCF7CBFD564800783F28F8D0C820BE
:1045F000FCF7C4FD4C480068401E4B49086000E0D1
:104600008AE01420FCF7BAFD474801684DA004F089
:1046100045FC45480068002842DC9FED470A4048B9
:1046200080ED000A12E04B4A1168002901DB0A46BE
:1046300000E04A42962A09DD464A1068002801DB5C
:10464000024600E04242C82A00DA00E0EBE700BF81
:1046500013E040490868002801DB014600E04142C0
:1046600064290ADA9FED2D0A2D4880ED000A9FED9E
:104670002B0A2C4880ED000A00E0EAE700BF4FF467
:10468000FA70FCF77BFD34A004F008FC00212648FA
:1046900090F89420001D40F822100520274908704A
:1046A000002091E700BF00BF1F4890F89400401C15
:1046B0001D4981F89400002086E700BF00BF2B4809
:1046C0002060022080E700BF00BF29482060022050
:1046D0007AE700BF00BF27482060022074E715E09A
:1046E0000EE006E0FFE700BF00BF23482060022085
:1046F0006AE700BF00BFAFF2FF102060022063E74F
:1047000000BF00BF1D48206002205DE700BF00BF62
:104710001B482060022057E7012055E700000000F9
:104720000C000020100000207C0B00200000E1C3E2
:1047300000803BC4000048420000AFC304000020DA
:10474000190000206E756D5F686561643A2564200C
:104750000A000000240000206F6B200A206F6B20ED
:104760000A206F6B200A206F6B000000C15E0008FA
:10477000B1730008B16E0008495C0008A94900083F
:10478000B16A00082DE9F04104460F463878102838
:104790007ED2DFE800F0E208AE22E2B2C4CAD0D690
:1047A000B8BEE2E2E2DC00BF00BF9FED6D0A6D48DB
:1047B00080ED000A9FED6A0A6B4880ED000A5020E8
:1047C000FFF772F9002069490870694908700320F1
:1047D000684908700020BDE8F08101256648007B2B
:1047E000012800D1072500263EE06348405D0728E8
:1047F00017D2DFE800F01604070A0D10130004F0CA
:1048000053FD14E004F092FD11E004F0C7FD0EE04A
:1048100004F034FC0BE004F091FC08E004F0E4FC4C
:1048200005E0012211465548FCF7C8FD00BF00BF56
:1048300051494E550846405D20B1012805D0022857
:1048400009D105E005F0F6FC0BE005F020FD08E0DD
:1048500005F054FD05E0012211464848FCF7AEFD85
:1048600000BF00BFAD1C761C032EBEDB012211462B
:104870004248FCF7A3FD4FF4FA70FCF77FFC502090
:10488000FFF712F99FED360A374880ED000A00E085
:1048900063E09FED330A334880ED000A002033497E
:1048A00008700120324908709FED350A2E4880EDCE
:1048B000000A00BF334800783F28FBD14FF42F7027
:1048C000FCF75CFC9FED260A264880ED000A9FED70
:1048D000240A254880ED000A002201212748FCF720
:1048E0006DFD0020214908700F202249087000202A
:1048F00071E700BF00BF00206DE700BF00BF224886
:104900002060022067E700BF00BF2048206002202F
:1049100061E700BF00BF1E48206002205BE700BFC8
:1049200000BF1C482060022055E700BF00BF1A48A6
:10493000206002204FE700BF00BF1848206002201F
:1049400049E700BF00BF16482060022043E700BFD0
:1049500000BF1448206002203DE701203BE7000033
:10496000000000000C000020100000201D000020AE
:104970001C00002004000020690300200008024001
:104980000000AF431A000020C15E0008B1730008A8
:10499000B16E0008495C0008F9440008A949000804
:1049A000B16A0008D961000870B504460D46287840
:1049B0000C2870D2DFE800F06F06DC646FE7FFF1CF
:1049C000F0EFF3F900BF00BF9FED880A884880ED43
:1049D000000A9FED860A874880ED000A012086497B
:1049E0000870864890F89410001D50F82100834903
:1049F000086008460068012826DD1AE07C4890ED32
:104A0000000AF3EE090A30EE200A80ED000A1920B0
:104A1000FCF7B4FB764890ED000ADFED790AB4EEBE
:104A2000E00AF1EE10FA04DD9FED760A80ED000A4F
:104A300009E06F4890ED000ADFED720AB4EEE00A7B
:104A4000F1EE10FADAD916E00BE0694890ED000AB1
:104A5000DFED6D0A30EE200A80ED000A0220FCF73F
:104A60008DFB634890ED000ADFED680AB4EEE00AC2
:104A7000F1EE10FAE9D9032065490870002070BDF5
:104A800000BF00BF02E00520FCF778FB614800781A
:104A90000F28F8D103E0A7E00520FCF76FFB5D4885
:104AA00000780F28F8D055480068401E5349086028
:104AB0001420FCF763FB002201215748FCF77EFC21
:104AC0004E48016855A004F0E9F94C4800680028F8
:104AD0004CD19FED4E0A464880ED000A12E0534A41
:104AE0001168002901DB0A4600E04A42962A09DDE6
:104AF0004E4A1068002801DB024600E04242C82A04
:104B000000DA00E0EBE700BF1DE001221146424859
:104B1000FCF754FC45490868002801DB014600E029
:104B2000414264290FDA9FED310A314880ED000AD5
:104B30009FED2E0A2F4880ED000A00220121364801
:104B4000FCF73CFC00E0E0E700BF4FF4FA70FCF734
:104B500015FB37A004F0A2F90021284890F8942012
:104B6000001D40F82210052029490870002086E722
:104B700000BF00BF214890F89400401C1F4981F8F5
:104B8000940000207BE700BF00BF2E482060022079
:104B900075E70AE003E021E019E012E00BE000BF56
:104BA00000BF29482060022069E700BF00BF2748F6
:104BB0002060022063E700BF00BF2548206002207C
:104BC0005DE700BF00BF23482060022057E700BF19
:104BD00000BFAFF22B202060022050E700BF00BFD3
:104BE0001D48206002204AE7012048E7000000003D
:104BF0000C000020100000201C0000207C0B002076
:104C00000000E14300803B44000048420000AF4305
:104C10000400002018000020000802406E756D5F3F
:104C2000686561643A2564200A00000024000020C1
:104C30006F6B200A206F6B200A206F6B200A206F99
:104C40006B000000C15E0008B1730008B16E00087F
:104C5000495C0008F9440008B16A000870B52DED00
:104C6000068B04460D462878032857D004DC01281B
:104C700007D002287ED136E205287CD01728F9D14A
:104C80003BE200BF00BF9FEDFD0AFD4880ED000A3A
:104C90009FEDFA0AFB4880ED000A0020FA490870EF
:104CA0005420FEF701FF0520F8490870F84890ED00
:104CB0000D0A10EE101A0846FBF7C0FC41EC100B71
:104CC000F44880ED000BF24890ED0C0A10EE101A3B
:104CD0000846FBF7B3FC41EC100BEF4880ED000BEE
:104CE000EB4890ED0E0A10EE101A0846FBF7A6FCF2
:104CF00041EC100BE94880ED000B6420FCF73EFA14
:104D00000120E14908704FF4FA70FCF737FA0320EC
:104D1000E34908700020BDEC068B70BDE14890EDC2
:104D2000000A10EE101A0846FBF788FC41EC1A0B3B
:104D3000D94890ED001BB0EE410AF0EE610A53EC49
:104D4000102B51EC1A0BFBF784FB41EC190BB0EE66
:104D5000490AF0EE690A04F0CDF8B0EE408AF0EEB0
:104D6000608A9FEDD10B53EC102B51EC180BFBF725
:104D700079FC01E0C7E1BAE17ED2CA4890ED010AB0
:104D800010EE101A0846FBF759FC41EC1A0BC1480B
:104D900090ED001BB0EE410AF0EE610A53EC102BCF
:104DA00051EC1A0BFBF755FB41EC190BB0EE490A1D
:104DB000F0EE690A04F09EF8B0EE408AF0EE608AE8
:104DC0009FEDB90B53EC102B51EC180BFBF74AFC81
:104DD000D2D2B44890ED030A10EE101A0846FBF741
:104DE0002DFC41EC1A0BAD4890ED001BB0EE410AD2
:104DF000F0EE610A53EC102B51EC1A0BFBF729FB78
:104E000041EC190BB0EE490AF0EE690A04F072F8B1
:104E1000B0EE408AF0EE608A9FEDA50B53EC102BAC
:104E200051EC180BFBF71EFCA6D2C820FCF7A6F924
:104E30009C4890ED000A10EE101A0846FBF7FEFBA6
:104E400041EC1A0B944890ED001BB0EE410AF0EED5
:104E5000610A53EC102B51EC1A0BFBF7FAFA41ECF8
:104E6000190BB0EE490AF0EE690A04F043F8B0EE0F
:104E7000408AF0EE608A00E033E19FED8B0B53EC4B
:104E8000102B51EC180BFBF7EDFB7CD2854890ED15
:104E9000010A10EE101A0846FBF7D0FB41EC1A0B82
:104EA0007C4890ED001BB0EE410AF0EE610A53EC35
:104EB000102B51EC1A0BFBF7CCFA41EC190BB0EEAE
:104EC000490AF0EE690A04F015F8B0EE408AF0EEF7
:104ED000608A9FED750B53EC102B51EC180BFBF710
:104EE000C1FBD2D26F4890ED030A10EE101A0846AB
:104EF000FBF7A4FB41EC1A0B684890ED001BB0EEE9
:104F0000410AF0EE610A53EC102B51EC1A0BFBF73F
:104F1000A0FA41EC190BB0EE490AF0EE690A03F071
:104F2000E9FFB0EE408AF0EE608A9FED610B53EC32
:104F3000102B51EC180BFBF795FB24D2C820FCF783
:104F40001DF9584890ED000A10EE101A0846FBF7BC
:104F500075FB41EC1A0B504890ED001BB0EE410A76
:104F6000F0EE610A53EC102B51EC1A0BFBF771FABF
:104F700041EC190BB0EE490AF0EE690A03F0BAFFF2
:104F8000B0EE408A00E078E0F0EE608A9FED460BDC
:104F900053EC102B51EC180BFBF764FB6DD241481E
:104FA00090ED010A10EE101A0846FBF747FB41ECA2
:104FB0001A0B384890ED001BB0EE410AF0EE610A82
:104FC00053EC102B51EC1A0BFBF743FA41EC190B85
:104FD000B0EE490AF0EE690A03F08CFFB0EE408AA9
:104FE000F0EE608A9FED300B53EC102B51EC180B58
:104FF000FBF738FB70D22B4890ED030A10EE101A25
:105000000846FBF71BFB41EC1A0B244890ED001BF4
:10501000B0EE410AF0EE610A53EC102B51EC1A0B82
:10502000FBF717FA41EC190BB0EE490AF0EE690AEA
:1050300003F060FFB0EE408AF0EE608A9FED1C0B3B
:1050400053EC102B51EC180BFBF70CFB44D2012254
:1050500011461948FCF7B2F99FED080A084880ED9F
:10506000000A9FED060A074880ED000A0020064965
:105070000870C820FCF782F820E02DE00000000056
:105080000C000020100000201C0000201D0000204B
:10509000340C00208002002020020020E0020020CA
:1050A0000400002084030020000000000000F03F06
:1050B000000000000000E03F0008024004F0A8FEED
:1050C0004FF47A70FCF75AF8172010490870002244
:1050D00001210F48FCF772F9002201210C48FCF76E
:1050E0006DF9002017E600BF00BF002013E600BFE7
:1050F00000BF0848206002200DE600BF00BF064840
:105100002060022007E6012005E6000004000020E0
:1051100000080240C15E0008C165000870B52DEDB1
:10512000068B04460D462878032866D004DC012847
:1051300007D002287DD1E8E105287BD01828F9D1D5
:1051400014E200BF00BF9FEDF90AF94880ED000AA4
:105150009FEDF60AF74880ED000A0020F649087036
:105160000220F64908705320FEF79EFCF448007BAD
:1051700001281AD1F34890ED130A10EE101A0846D0
:10518000FBF75CFA41EC100BEF4880ED000BED48AB
:1051900090ED120A10EE101A0846FBF74FFA41EC98
:1051A000100BEA4880ED000B19E0E64890ED100A7C
:1051B00010EE101A0846FBF741FA41EC100BE248DA
:1051C00080ED000BDF4890ED0F0A10EE101A084634
:1051D000FBF734FA41EC100BDC4880ED000B4FF488
:1051E000FA70FBF7CBFF0120D34908700320D849A0
:1051F00008700020BDEC068B70BDD64890ED000A0B
:1052000010EE101A0846FBF719FA41EC1A0BCF48BA
:1052100090ED001BB0EE410AF0EE610A53EC102B4A
:1052200051EC1A0BFBF715F941EC190BB0EE490ADA
:1052300001E0A1E173E1F0EE690A03F05BFEB0EE7C
:10524000408AF0EE608A9FEDC40B53EC102B51ECBA
:10525000180BFBF707FA7CD2BE4890ED010A10EE5E
:10526000101A0846FBF7EAF941EC1A0BB64890ED24
:10527000001BB0EE410AF0EE610A53EC102B51EC2A
:105280001A0BFBF7E6F841EC190BB0EE490AF0EE09
:10529000690A03F02FFEB0EE408AF0EE608A9FEDBF
:1052A000AE0B53EC102B51EC180BFBF7DBF9D2D201
:1052B000A248007802284CD1C820FBF75FFFA54820
:1052C00090ED000A10EE101A0846FBF7B7F941EC12
:1052D0001A0B9E4890ED001BB0EE410AF0EE610AF9
:1052E00053EC102B51EC1A0BFBF7B3F841EC190BF4
:1052F000B0EE490AF0EE690A03F0FCFDB0EE408A18
:10530000F0EE608A9FED940B53EC102B51EC180BD0
:10531000FBF7A8F97ED28F4890ED010A10EE101A23
:105320000846FBF78BF941EC1A0B874890ED001B00
:10533000B0EE410AF0EE610A53EC102B51EC1A0B5F
:10534000FBF787F841EC190BB0EE490AF0EE690A59
:1053500000E0D8E003F0CEFDB0EE408AF0EE608AC7
:105360009FED7D0B53EC102B51EC180BFBF77AF9EA
:1053700050D2C820FBF702FF764890ED000A10EEED
:10538000101A0846FBF75AF941EC1A0B6F4890EDDA
:10539000001BB0EE410AF0EE610A53EC102B51EC09
:1053A0001A0BFBF756F841EC190BB0EE490AF0EE78
:1053B000690A03F09FFDB0EE408AF0EE608A9FED2F
:1053C000660B53EC102B51EC180BFBF74BF921D269
:1053D000604890ED010A10EE101A0846FBF72EF90E
:1053E00041EC1A0B584890ED001BB0EE410AF0EE6C
:1053F000610A53EC102B51EC1A0BFBF72AF841EC25
:10540000190BB0EE490AF0EE690A03F073FDB0EE35
:10541000408A00E072E0F0EE608A9FED4F0B53ECA3
:10542000102B51EC180BFBF71DF967D2C820FBF7C6
:10543000A5FE484890ED000A10EE101A0846FBF74A
:10544000FDF841EC1A0B414890ED001BB0EE410A0B
:10545000F0EE610A53EC102B51EC1A0BFAF7F9FF3E
:1054600041EC190BB0EE490AF0EE690A03F042FD77
:10547000B0EE408AF0EE608A9FED370B53EC102BB4
:1054800051EC180BFBF7EEF838D2324890ED010AD8
:1054900010EE101A0846FBF7D1F841EC1A0B2A4817
:1054A00090ED001BB0EE410AF0EE610A53EC102BB8
:1054B00051EC1A0BFAF7CDFF41EC190BB0EE490A8B
:1054C000F0EE690A03F016FDB0EE408AF0EE608A55
:1054D0009FED210B53EC102B51EC180BFBF7C2F88E
:1054E0000CD2012211461E48FBF768FF182018490C
:1054F0000870002201211A48FBF760FF00220121F9
:105500001748FBF75BFF002074E60021154890F870
:1055100094208030815400BF00BF00206AE600BFA5
:1055200000BF11482060022064E600000000000077
:105530000C000020100000201C0000201D00002096
:1055400069030020340C002080020020200200208B
:105550000400002084030020000000000000F03F51
:10556000000802407C0B0020C15E000800BF00BFA5
:105570000248206002203DE601203BE65968000811
:1055800070B52DED068B82B005460E4630780528A5
:1055900070D006DC012809D002286CD003286BD11A
:1055A0009AE00E2869D01728F9D19AE200BF00BF0F
:1055B0009FEDFE0AFE4880ED000A9FEDFC0AFD48C3
:1055C00080ED000A0020FC4908700220FB490870A9
:1055D0005320FEF769FAFA4890ED040A10EE101A0B
:1055E0000846FBF72BF841EC100BF64880ED000B5A
:1055F000F34890ED030A10EE101A0846FBF71EF868
:1056000041EC100BF04880ED000B4FF4FA70FBF703
:10561000B5FD0120E84908700A20BA210B46522244
:10562000CDE9001090218C2002F0A4F9E748007B1E
:10563000002849D15120FEF715FA43E0E4480078EC
:1056400000283CD0002400BF10E000200BE0E0491F
:10565000095DDE4A125C914204D1611CCAB2DB4B87
:10566000411C5A54801C0628F1DB641C032CECDB23
:10567000032414E02FE22AE23FE238E206200BE0A6
:10568000D349095DD14A125C914204D1611CCAB26E
:10569000CE4B411C5A54801C0C28F1DB641C062C98
:1056A000ECDB01221146CB48FBF788FE6420FBF7B8
:1056B00065FD00220121C748FBF780FE03E00F20B3
:1056C000FBF75CFDBAE700BF0320C3490870002068
:1056D00002B0BDEC068B70BDC04890ED000A10EE24
:1056E000101A0846FAF7AAFF41EC1A0BB64890EDDB
:1056F000001BB0EE410AF0EE610A53EC102B51ECA6
:105700001A0BFAF7A6FE41EC190BB0EE490AF0EEBF
:10571000690A03F0EFFBB0EE408AF0EE608A9FED7D
:10572000B00B53EC102B51EC180BFAF79BFF78D20F
:10573000AA4890ED010A10EE101A0846FAF77EFF0B
:1057400041EC1A0B9F4890ED001BB0EE410AF0EEC1
:10575000610A53EC102B51EC1A0BFAF77AFE41EC6C
:10576000190BB0EE490AF0EE690A03F0C3FBB0EE84
:10577000408AF0EE608A9FED9A0B53EC102B51ECAF
:10578000180BFAF76FFF4CD28C480078022848D1EA
:10579000012211468F48FBF711FE5020FEF762F9F7
:1057A0005620FEF781F98948007B01281AD18448E8
:1057B00090ED0A0A10EE101A0846FAF73FFF41EC86
:1057C000100B804880ED000B7D4890ED090A10EE2B
:1057D000101A0846FAF732FF41EC100B7A4880EDB8
:1057E000000B19E0764890ED070A10EE101A0846F3
:1057F000FAF724FF41EC100B724880ED000B704863
:1058000090ED060A10EE101A0846FAF717FF41EC61
:10581000100B6D4880ED000B002201216D48FBF755
:10582000CDFD6E4890ED000A10EE101A0846FAF70A
:1058300005FF41EC1A0B644890ED001BB0EE410AE5
:10584000F0EE610A53EC102B51EC1A0BFAF701FE43
:1058500041EC190BB0EE490AF0EE690A03F04AFB7D
:10586000B0EE408AF0EE608A9FED5F0B53EC102B98
:1058700051EC180BFAF7F6FE7ED2584890ED010A6B
:1058800010EE101A0846FAF7D9FE41EC1A0B4D48F3
:1058900090ED001BB0EE410AF0EE610A53EC102BC4
:1058A00051EC1A0BFAF7D5FD41EC190BB0EE490A91
:1058B000F0EE690A03F01EFBB0EE408AF0EE608A5B
:1058C0009FED490B53EC102B51EC180BFAF7CAFE65
:1058D00052D23A48007802284ED1C820FBF74EFC3D
:1058E0003E4890ED000A10EE101A0846FAF7A6FEA0
:1058F00041EC1A0B344890ED001BB0EE410AF0EE7B
:10590000610A53EC102B51EC1A0BFAF7A2FD41EC93
:10591000190BB0EE490AF0EE690A03F0EBFAB0EEAB
:10592000408AF0EE608A9FED300B53EC102B51EC67
:10593000180BFAF797FE7CD2284890ED010A10EE7A
:10594000101A0846FAF77AFE41EC1A0B1D4890ED42
:10595000001BB0EE410AF0EE610A53EC102B51EC43
:105960001A0BFAF776FD41EC190BB0EE490AF0EE8E
:10597000690A03F0BFFA00E0A7E0B0EE408AF0EE5B
:10598000608A9FED190B53EC102B51EC180BFAF7B2
:1059900069FE4ED20948007802284AD1C820FBF798
:1059A000EDFB0E4890ED000A22E000000000000030
:1059B0000C000020100000201C0000201D00002012
:1059C000340C002080020020200200206903002007
:1059D0007603002000080240040000208403002019
:1059E0000000000000002440000000000000F03F24
:1059F00010EE101A0846FAF721FE41EC1A0B404847
:105A000090ED001BB0EE410AF0EE610A53EC102B52
:105A100051EC1A0BFAF71DFD41EC190BB0EE490AD7
:105A2000F0EE690A03F066FAB0EE408AF0EE608AA2
:105A300000E045E01FED140B53EC102B51EC180B5C
:105A4000FAF710FE3CD22F4890ED010A10EE101A22
:105A50000846FAF7F3FD41EC1A0B2B4890ED001BBA
:105A6000B0EE410AF0EE610A53EC102B51EC1A0B28
:105A7000FAF7EFFC41EC190BB0EE490AF0EE690AB7
:105A800003F038FAB0EE408AF0EE608A1FED2A0B80
:105A900053EC102B51EC180BFAF7E4FD10D21B4815
:105AA000007802280CD1012211461948FBF786FC28
:105AB0000E2018490870002201211548FBF77EFCD2
:105AC000002201211248FBF779FC002000E600BF0C
:105AD00000BF0020FCE500BF00BF0F482860022087
